{
  "contractName": "Marranito",
  "abi": [
    {
      "constant": false,
      "inputs": [],
      "name": "renounceOwnership",
      "outputs": [],
      "payable": false,
      "stateMutability": "nonpayable",
      "type": "function"
    },
    {
      "constant": true,
      "inputs": [],
      "name": "owner",
      "outputs": [
        {
          "name": "",
          "type": "address"
        }
      ],
      "payable": false,
      "stateMutability": "view",
      "type": "function"
    },
    {
      "constant": true,
      "inputs": [],
      "name": "isOwner",
      "outputs": [
        {
          "name": "",
          "type": "bool"
        }
      ],
      "payable": false,
      "stateMutability": "view",
      "type": "function"
    },
    {
      "constant": false,
      "inputs": [
        {
          "name": "newOwner",
          "type": "address"
        }
      ],
      "name": "transferOwnership",
      "outputs": [],
      "payable": false,
      "stateMutability": "nonpayable",
      "type": "function"
    },
    {
      "inputs": [],
      "payable": false,
      "stateMutability": "nonpayable",
      "type": "constructor"
    },
    {
      "payable": true,
      "stateMutability": "payable",
      "type": "fallback"
    },
    {
      "anonymous": false,
      "inputs": [
        {
          "indexed": false,
          "name": "_sender",
          "type": "address"
        },
        {
          "indexed": false,
          "name": "_value",
          "type": "uint256"
        },
        {
          "indexed": false,
          "name": "_msg",
          "type": "string"
        }
      ],
      "name": "funds",
      "type": "event"
    },
    {
      "anonymous": false,
      "inputs": [
        {
          "indexed": true,
          "name": "previousOwner",
          "type": "address"
        },
        {
          "indexed": true,
          "name": "newOwner",
          "type": "address"
        }
      ],
      "name": "OwnershipTransferred",
      "type": "event"
    },
    {
      "constant": false,
      "inputs": [],
      "name": "feedMe",
      "outputs": [],
      "payable": true,
      "stateMutability": "payable",
      "type": "function"
    },
    {
      "constant": false,
      "inputs": [
        {
          "name": "_to",
          "type": "address"
        },
        {
          "name": "value",
          "type": "uint256"
        }
      ],
      "name": "sendFunds",
      "outputs": [],
      "payable": false,
      "stateMutability": "nonpayable",
      "type": "function"
    },
    {
      "constant": true,
      "inputs": [
        {
          "name": "_heir",
          "type": "address"
        }
      ],
      "name": "hasHeir",
      "outputs": [
        {
          "name": "",
          "type": "bool"
        }
      ],
      "payable": false,
      "stateMutability": "view",
      "type": "function"
    },
    {
      "constant": true,
      "inputs": [
        {
          "name": "_heir",
          "type": "address"
        }
      ],
      "name": "getHeirPercentage",
      "outputs": [
        {
          "name": "",
          "type": "uint8"
        }
      ],
      "payable": false,
      "stateMutability": "view",
      "type": "function"
    },
    {
      "constant": false,
      "inputs": [
        {
          "name": "_heir",
          "type": "address"
        },
        {
          "name": "_percentage",
          "type": "uint8"
        }
      ],
      "name": "addHeir",
      "outputs": [
        {
          "name": "",
          "type": "bool"
        }
      ],
      "payable": false,
      "stateMutability": "nonpayable",
      "type": "function"
    },
    {
      "constant": false,
      "inputs": [
        {
          "name": "_heir",
          "type": "address"
        },
        {
          "name": "_percentage",
          "type": "uint8"
        }
      ],
      "name": "updateHeir",
      "outputs": [
        {
          "name": "",
          "type": "uint8"
        }
      ],
      "payable": false,
      "stateMutability": "nonpayable",
      "type": "function"
    },
    {
      "constant": false,
      "inputs": [
        {
          "name": "_heir",
          "type": "address"
        }
      ],
      "name": "removeHeir",
      "outputs": [
        {
          "name": "",
          "type": "bool"
        }
      ],
      "payable": false,
      "stateMutability": "nonpayable",
      "type": "function"
    }
  ],
  "bytecode": "0x608060405234801561001057600080fd5b50336000806101000a81548173ffffffffffffffffffffffffffffffffffffffff021916908373ffffffffffffffffffffffffffffffffffffffff1602179055506000809054906101000a900473ffffffffffffffffffffffffffffffffffffffff1673ffffffffffffffffffffffffffffffffffffffff16600073ffffffffffffffffffffffffffffffffffffffff167f8be0079c531659141344cd1fd0a4f28419497f9722a3daafe3b4186f6b6457e060405160405180910390a360008060146101000a81548160ff021916908360ff16021790555061108b806100f76000396000f3fe60806040526004361061009c5760003560e01c80638da5cb5b116100645780638da5cb5b146101fb5780638f32d59b1461025257806395d91cc814610281578063cdc92a63146102f9578063ebb9d2e314610362578063f2fde38b146103cb5761009c565b80632eef480a1461009e5780633e810fc81461011457806347dbb8241461017f5780636f64234e14610189578063715018a6146101e4575b005b3480156100aa57600080fd5b506100fa600480360360408110156100c157600080fd5b81019080803573ffffffffffffffffffffffffffffffffffffffff169060200190929190803560ff16906020019092919050505061041c565b604051808215151515815260200191505060405180910390f35b34801561012057600080fd5b506101636004803603602081101561013757600080fd5b81019080803573ffffffffffffffffffffffffffffffffffffffff1690602001909291905050506106a2565b604051808260ff1660ff16815260200191505060405180910390f35b6101876106f8565b005b34801561019557600080fd5b506101e2600480360360408110156101ac57600080fd5b81019080803573ffffffffffffffffffffffffffffffffffffffff1690602001909291908035906020019092919050505061079e565b005b3480156101f057600080fd5b506101f9610863565b005b34801561020757600080fd5b5061021061099c565b604051808273ffffffffffffffffffffffffffffffffffffffff1673ffffffffffffffffffffffffffffffffffffffff16815260200191505060405180910390f35b34801561025e57600080fd5b506102676109c5565b604051808215151515815260200191505060405180910390f35b34801561028d57600080fd5b506102dd600480360360408110156102a457600080fd5b81019080803573ffffffffffffffffffffffffffffffffffffffff169060200190929190803560ff169060200190929190505050610a1c565b604051808260ff1660ff16815260200191505060405180910390f35b34801561030557600080fd5b506103486004803603602081101561031c57600080fd5b81019080803573ffffffffffffffffffffffffffffffffffffffff169060200190929190505050610b84565b604051808215151515815260200191505060405180910390f35b34801561036e57600080fd5b506103b16004803603602081101561038557600080fd5b81019080803573ffffffffffffffffffffffffffffffffffffffff169060200190929190505050610be0565b604051808215151515815260200191505060405180910390f35b3480156103d757600080fd5b5061041a600480360360208110156103ee57600080fd5b81019080803573ffffffffffffffffffffffffffffffffffffffff169060200190929190505050610d6c565b005b600082600060ff16600160008373ffffffffffffffffffffffffffffffffffffffff1673ffffffffffffffffffffffffffffffffffffffff16815260200190815260200160002060009054906101000a900460ff1660ff16146104e7576040517f08c379a00000000000000000000000000000000000000000000000000000000081526004018080602001828103825260188152602001807f54686973206865697220616c726561647920657869737473000000000000000081525060200191505060405180910390fd5b8260008160ff1611610561576040517f08c379a000000000000000000000000000000000000000000000000000000000815260040180806020018281038252601f8152602001807f546869732070657263656e74616765206973206e6f7420706f7369746976650081525060200191505060405180910390fd5b8360648160ff1611156105bf576040517f08c379a00000000000000000000000000000000000000000000000000000000081526004018080602001828103825260228152602001806110186022913960400191505060405180910390fd5b6105c76109c5565b610639576040517f08c379a00000000000000000000000000000000000000000000000000000000081526004018080602001828103825260208152602001807f4f776e61626c653a2063616c6c6572206973206e6f7420746865206f776e657281525060200191505060405180910390fd5b6106438686610a1c565b506000600160008873ffffffffffffffffffffffffffffffffffffffff1673ffffffffffffffffffffffffffffffffffffffff16815260200190815260200160002060009054906101000a900460ff1660ff1614935050505092915050565b6000600160008373ffffffffffffffffffffffffffffffffffffffff1673ffffffffffffffffffffffffffffffffffffffff16815260200190815260200160002060009054906101000a900460ff169050919050565b7f487b98b3d3f76951e595bec04eabc2694891d77bcfd3363cbef6fd6d71d0cadf3334604051808373ffffffffffffffffffffffffffffffffffffffff1673ffffffffffffffffffffffffffffffffffffffff16815260200182815260200180602001828103825260138152602001807f4d65206d616e6461726f6e20706c617469636100000000000000000000000000815250602001935050505060405180910390a1565b6107a66109c5565b610818576040517f08c379a00000000000000000000000000000000000000000000000000000000081526004018080602001828103825260208152602001807f4f776e61626c653a2063616c6c6572206973206e6f7420746865206f776e657281525060200191505060405180910390fd5b8173ffffffffffffffffffffffffffffffffffffffff166108fc829081150290604051600060405180830381858888f1935050505015801561085e573d6000803e3d6000fd5b505050565b61086b6109c5565b6108dd576040517f08c379a00000000000000000000000000000000000000000000000000000000081526004018080602001828103825260208152602001807f4f776e61626c653a2063616c6c6572206973206e6f7420746865206f776e657281525060200191505060405180910390fd5b600073ffffffffffffffffffffffffffffffffffffffff166000809054906101000a900473ffffffffffffffffffffffffffffffffffffffff1673ffffffffffffffffffffffffffffffffffffffff167f8be0079c531659141344cd1fd0a4f28419497f9722a3daafe3b4186f6b6457e060405160405180910390a360008060006101000a81548173ffffffffffffffffffffffffffffffffffffffff021916908373ffffffffffffffffffffffffffffffffffffffff160217905550565b60008060009054906101000a900473ffffffffffffffffffffffffffffffffffffffff16905090565b60008060009054906101000a900473ffffffffffffffffffffffffffffffffffffffff1673ffffffffffffffffffffffffffffffffffffffff163373ffffffffffffffffffffffffffffffffffffffff1614905090565b60008160008160ff1611610a98576040517f08c379a000000000000000000000000000000000000000000000000000000000815260040180806020018281038252601f8152602001807f546869732070657263656e74616765206973206e6f7420706f7369746976650081525060200191505060405180910390fd5b8260648160ff161115610af6576040517f08c379a00000000000000000000000000000000000000000000000000000000081526004018080602001828103825260228152602001806110186022913960400191505060405180910390fd5b610afe6109c5565b610b70576040517f08c379a00000000000000000000000000000000000000000000000000000000081526004018080602001828103825260208152602001807f4f776e61626c653a2063616c6c6572206973206e6f7420746865206f776e657281525060200191505060405180910390fd5b610b7a8585610df2565b9250505092915050565b600080600160008473ffffffffffffffffffffffffffffffffffffffff1673ffffffffffffffffffffffffffffffffffffffff16815260200190815260200160002060009054906101000a900460ff1660ff1614159050919050565b6000610bea6109c5565b610c5c576040517f08c379a00000000000000000000000000000000000000000000000000000000081526004018080602001828103825260208152602001807f4f776e61626c653a2063616c6c6572206973206e6f7420746865206f776e657281525060200191505060405180910390fd5b610cb582600160008573ffffffffffffffffffffffffffffffffffffffff1673ffffffffffffffffffffffffffffffffffffffff16815260200190815260200160002060009054906101000a900460ff16600003610df2565b506000600160008473ffffffffffffffffffffffffffffffffffffffff1673ffffffffffffffffffffffffffffffffffffffff16815260200190815260200160002060006101000a81548160ff021916908360ff160217905550600060ff16600160008473ffffffffffffffffffffffffffffffffffffffff1673ffffffffffffffffffffffffffffffffffffffff16815260200190815260200160002060009054906101000a900460ff1660ff16149050919050565b610d746109c5565b610de6576040517f08c379a00000000000000000000000000000000000000000000000000000000081526004018080602001828103825260208152602001807f4f776e61626c653a2063616c6c6572206973206e6f7420746865206f776e657281525060200191505060405180910390fd5b610def81610ed3565b50565b600080600160008573ffffffffffffffffffffffffffffffffffffffff1673ffffffffffffffffffffffffffffffffffffffff16815260200190815260200160002060009054906101000a900460ff16905082600060148282829054906101000a900460ff160192506101000a81548160ff021916908360ff16021790555082600160008673ffffffffffffffffffffffffffffffffffffffff1673ffffffffffffffffffffffffffffffffffffffff16815260200190815260200160002060006101000a81548160ff021916908360ff1602179055508091505092915050565b600073ffffffffffffffffffffffffffffffffffffffff168173ffffffffffffffffffffffffffffffffffffffff161415610f59576040517f08c379a000000000000000000000000000000000000000000000000000000000815260040180806020018281038252602681526020018061103a6026913960400191505060405180910390fd5b8073ffffffffffffffffffffffffffffffffffffffff166000809054906101000a900473ffffffffffffffffffffffffffffffffffffffff1673ffffffffffffffffffffffffffffffffffffffff167f8be0079c531659141344cd1fd0a4f28419497f9722a3daafe3b4186f6b6457e060405160405180910390a3806000806101000a81548173ffffffffffffffffffffffffffffffffffffffff021916908373ffffffffffffffffffffffffffffffffffffffff1602179055505056fe546869732070657263656e7461676520697320626967676572207468616e203130304f776e61626c653a206e6577206f776e657220697320746865207a65726f2061646472657373a165627a7a723058207119abcb271892f068100c2e2dfca71eccefd6f8502e08af617a90ef8c3f944a0029",
  "source": "pragma solidity >= 0.4.23 <0.6.0;\n\nimport \"@openzeppelin/contracts/ownership/Ownable.sol\";\n\ncontract Marranito is Ownable {\n  uint8 totalPercentage;\n  mapping(address => uint8) heirsToPercentage;\n\n  event funds(address _sender, uint _value, string _msg);\n\n  constructor() public {\n    totalPercentage = 0;\n  }\n\n  modifier heirDoesntExists(address _heir) {\n    require(heirsToPercentage[_heir] == uint8(0x0), \"This heir already exists\");\n    _;\n  }\n\n  modifier percentagePositive(uint8 _percentage) {\n    require(_percentage > 0, \"This percentage is not positive\");\n    _;\n  }\n\n  modifier percentageLsEq100(uint8 _percentage) {\n    require(_percentage <= 100, \"This percentage is bigger than 100\");\n    _;\n  }\n\n  function feedMe() public payable {\n    emit funds(msg.sender, msg.value, \"Me mandaron platica\");\n  }\n\n  function sendFunds(address payable _to, uint value) public onlyOwner {\n     _to.transfer(value);\n  }\n\n  function hasHeir(address payable _heir) public view returns(bool) {\n    return heirsToPercentage[_heir] != 0;\n  }\n\n  function getHeirPercentage(address payable _heir) public view returns(uint8) {\n    return heirsToPercentage[_heir];\n  }\n\n  function addHeir(address payable _heir, uint8 _percentage) public heirDoesntExists(_heir)\n      percentagePositive(_percentage) percentageLsEq100(_percentage) onlyOwner returns(bool) {\n    updateHeir(_heir, _percentage);\n    return heirsToPercentage[_heir] == 0;\n  }\n\n  function updateHeir(address payable _heir, uint8 _percentage) public percentagePositive(_percentage)\n      percentageLsEq100(_percentage) onlyOwner returns(uint8) {\n    return _updateHeir(_heir, _percentage);\n  }\n\n  function removeHeir(address payable _heir) public onlyOwner returns(bool) {\n    _updateHeir(_heir, -heirsToPercentage[_heir]);\n    heirsToPercentage[_heir] = uint8(0x0);\n    return heirsToPercentage[_heir] == uint8(0x0);\n  }\n\n  function _updateHeir(address payable _heir, uint8 _percentage) private returns(uint8) {\n    uint8 _currentPercentage = heirsToPercentage[_heir];\n    totalPercentage += _percentage;\n    heirsToPercentage[_heir] = _percentage;\n    return _currentPercentage;\n  }\n\n  function() external payable {}\n}\n",
  "sourcePath": "/home/andres/blockchain/marranito/contracts/Marranito.sol",
  "compiler": {
    "name": "solc",
    "version": "0.5.8+commit.23d335f2.Emscripten.clang"
  },
  "schemaVersion": "3.0.11",
  "updatedAt": "2019-08-24T17:46:33.189Z",
  "devdoc": {
    "methods": {
      "isOwner()": {
        "details": "Returns true if the caller is the current owner."
      },
      "owner()": {
        "details": "Returns the address of the current owner."
      },
      "renounceOwnership()": {
        "details": "Leaves the contract without owner. It will not be possible to call `onlyOwner` functions anymore. Can only be called by the current owner.     * > Note: Renouncing ownership will leave the contract without an owner, thereby removing any functionality that is only available to the owner."
      },
      "transferOwnership(address)": {
        "details": "Transfers ownership of the contract to a new account (`newOwner`). Can only be called by the current owner."
      }
    }
  },
  "userdoc": {
    "methods": {}
  }
}